{
  "contractName": "ProduceTracker",
  "abi": [
    {
      "anonymous": false,
      "inputs": [
        {
          "indexed": false,
          "internalType": "uint256",
          "name": "id",
          "type": "uint256"
        },
        {
          "indexed": false,
          "internalType": "address",
          "name": "from",
          "type": "address"
        },
        {
          "indexed": false,
          "internalType": "address",
          "name": "to",
          "type": "address"
        }
      ],
      "name": "OwnershipTransferred",
      "type": "event"
    },
    {
      "anonymous": false,
      "inputs": [
        {
          "indexed": false,
          "internalType": "uint256",
          "name": "id",
          "type": "uint256"
        },
        {
          "indexed": false,
          "internalType": "string",
          "name": "name",
          "type": "string"
        },
        {
          "indexed": false,
          "internalType": "address",
          "name": "owner",
          "type": "address"
        }
      ],
      "name": "ProduceRegistered",
      "type": "event"
    },
    {
      "inputs": [],
      "name": "produceCount",
      "outputs": [
        {
          "internalType": "uint256",
          "name": "",
          "type": "uint256"
        }
      ],
      "stateMutability": "view",
      "type": "function",
      "constant": true
    },
    {
      "inputs": [
        {
          "internalType": "uint256",
          "name": "",
          "type": "uint256"
        }
      ],
      "name": "produceItems",
      "outputs": [
        {
          "internalType": "uint256",
          "name": "id",
          "type": "uint256"
        },
        {
          "internalType": "string",
          "name": "name",
          "type": "string"
        },
        {
          "internalType": "address",
          "name": "owner",
          "type": "address"
        }
      ],
      "stateMutability": "view",
      "type": "function",
      "constant": true
    },
    {
      "inputs": [
        {
          "internalType": "string",
          "name": "_name",
          "type": "string"
        }
      ],
      "name": "registerProduce",
      "outputs": [],
      "stateMutability": "nonpayable",
      "type": "function"
    },
    {
      "inputs": [
        {
          "internalType": "uint256",
          "name": "_id",
          "type": "uint256"
        },
        {
          "internalType": "address",
          "name": "_newOwner",
          "type": "address"
        }
      ],
      "name": "transferOwnership",
      "outputs": [],
      "stateMutability": "nonpayable",
      "type": "function"
    },
    {
      "inputs": [
        {
          "internalType": "uint256",
          "name": "_id",
          "type": "uint256"
        }
      ],
      "name": "getProduceHistory",
      "outputs": [
        {
          "internalType": "string[]",
          "name": "",
          "type": "string[]"
        }
      ],
      "stateMutability": "view",
      "type": "function",
      "constant": true
    }
  ],
  "bytecode": "0x608060405234801561001057600080fd5b50610d32806100206000396000f3fe608060405234801561001057600080fd5b50600436106100575760003560e01c8063173678071461005c57806329507f731461008557806355a45b201461009a578063769428d4146100ad5780638bcf767d146100c4575b600080fd5b61006f61006a3660046108a8565b6100e6565b60405161007c9190610911565b60405180910390f35b610098610093366004610973565b61022c565b005b6100986100a83660046109c5565b6103d3565b6100b660015481565b60405190815260200161007c565b6100d76100d23660046108a8565b610544565b60405161007c93929190610a76565b60606000821180156100fa57506001548211155b61014b5760405162461bcd60e51b815260206004820152601d60248201527f50726f6475636520626174636820646f6573206e6f742065786973742e00000060448201526064015b60405180910390fd5b60008281526020818152604080832060030180548251818502810185019093528083529193909284015b8282101561022157838290600052602060002001805461019490610aa7565b80601f01602080910402602001604051908101604052809291908181526020018280546101c090610aa7565b801561020d5780601f106101e25761010080835404028352916020019161020d565b820191906000526020600020905b8154815290600101906020018083116101f057829003601f168201915b505050505081526020019060010190610175565b505050509050919050565b60008211801561023e57506001548211155b61028a5760405162461bcd60e51b815260206004820152601d60248201527f50726f6475636520626174636820646f6573206e6f742065786973742e0000006044820152606401610142565b6000828152602081905260409020600201546001600160a01b031633146102ff5760405162461bcd60e51b8152602060048201526024808201527f596f7520617265206e6f7420746865206f776e6572206f6620746869732062616044820152633a31b41760e11b6064820152608401610142565b600082815260208190526040812060020180546001600160a01b038481166001600160a01b03198316179092551690610337836105f8565b6040516020016103479190610ae1565b60408051601f19818403018152918152600086815260208181529181206003018054600181018255908252919020919250016103838282610b82565b50604080518581526001600160a01b03848116602083015285168183015290517f16b85f49bf01212961345d3016c9a531894accf62eb7680f2045d79185cc0ec09181900360600190a150505050565b600180549060006103e383610c58565b9091555033905060006103f5826105f8565b6040516020016104059190610c71565b60408051808303601f19018152608083018252600154835260208084018790526001600160a01b0386168484015282516000808252918101909352909350606083019190610463565b606081526020019060019003908161044e5790505b50905260018054600090815260208181526040909120835181559083015190918201906104909082610b82565b5060408201516002820180546001600160a01b0319166001600160a01b03909216919091179055606082015180516104d29160038401916020909101906107e3565b505060018054600090815260208181526040822060030180549384018155825290200190506105018282610b82565b507fd08f340bc734f5331a028de80a06386c5cb95bb1c88b007427c0cdbc318fa19b600154848460405161053793929190610a76565b60405180910390a1505050565b6000602081905290815260409020805460018201805491929161056690610aa7565b80601f016020809104026020016040519081016040528092919081815260200182805461059290610aa7565b80156105df5780601f106105b4576101008083540402835291602001916105df565b820191906000526020600020905b8154815290600101906020018083116105c257829003601f168201915b505050600290930154919250506001600160a01b031683565b604080518082018252601081526f181899199a1a9b1b9c1cb0b131b232b360811b60208201528151602a80825260608281019094526001600160a01b0385169291600091602082018180368337019050509050600360fc1b8160008151811061066357610663610cb6565b60200101906001600160f81b031916908160001a905350600f60fb1b8160018151811061069257610692610cb6565b60200101906001600160f81b031916908160001a90535060005b60148110156107da57826004856106c484600c610ccc565b602081106106d4576106d4610cb6565b1a60f81b6001600160f81b031916901c60f81c60ff16815181106106fa576106fa610cb6565b01602001516001600160f81b03191682610715836002610ce5565b610720906002610ccc565b8151811061073057610730610cb6565b60200101906001600160f81b031916908160001a905350828461075483600c610ccc565b6020811061076457610764610cb6565b825191901a600f1690811061077b5761077b610cb6565b01602001516001600160f81b03191682610796836002610ce5565b6107a1906003610ccc565b815181106107b1576107b1610cb6565b60200101906001600160f81b031916908160001a905350806107d281610c58565b9150506106ac565b50949350505050565b828054828255906000526020600020908101928215610829579160200282015b8281111561082957825182906108199082610b82565b5091602001919060010190610803565b50610835929150610839565b5090565b8082111561083557600061084d8282610856565b50600101610839565b50805461086290610aa7565b6000825580601f10610872575050565b601f0160209004906000526020600020908101906108909190610893565b50565b5b808211156108355760008155600101610894565b6000602082840312156108ba57600080fd5b5035919050565b60005b838110156108dc5781810151838201526020016108c4565b50506000910152565b600081518084526108fd8160208601602086016108c1565b601f01601f19169290920160200192915050565b6000602080830181845280855180835260408601915060408160051b870101925083870160005b8281101561096657603f198886030184526109548583516108e5565b94509285019290850190600101610938565b5092979650505050505050565b6000806040838503121561098657600080fd5b8235915060208301356001600160a01b03811681146109a457600080fd5b809150509250929050565b634e487b7160e01b600052604160045260246000fd5b6000602082840312156109d757600080fd5b813567ffffffffffffffff808211156109ef57600080fd5b818401915084601f830112610a0357600080fd5b813581811115610a1557610a156109af565b604051601f8201601f19908116603f01168101908382118183101715610a3d57610a3d6109af565b81604052828152876020848701011115610a5657600080fd5b826020860160208301376000928101602001929092525095945050505050565b838152606060208201526000610a8f60608301856108e5565b905060018060a01b0383166040830152949350505050565b600181811c90821680610abb57607f821691505b602082108103610adb57634e487b7160e01b600052602260045260246000fd5b50919050565b7f5472616e7366657272656420746f206e6577206f776e65722061742061646472815263032b9b9960e51b602082015260008251610b268160248501602087016108c1565b9190910160240192915050565b601f821115610b7d57600081815260208120601f850160051c81016020861015610b5a5750805b601f850160051c820191505b81811015610b7957828155600101610b66565b5050505b505050565b815167ffffffffffffffff811115610b9c57610b9c6109af565b610bb081610baa8454610aa7565b84610b33565b602080601f831160018114610be55760008415610bcd5750858301515b600019600386901b1c1916600185901b178555610b79565b600085815260208120601f198616915b82811015610c1457888601518255948401946001909101908401610bf5565b5085821015610c325787850151600019600388901b60f8161c191681555b5050505050600190811b01905550565b634e487b7160e01b600052601160045260246000fd5b600060018201610c6a57610c6a610c42565b5060010190565b7f52656769737465726564206279204661726d6572206174206164647265737320815260008251610ca98160208501602087016108c1565b9190910160200192915050565b634e487b7160e01b600052603260045260246000fd5b80820180821115610cdf57610cdf610c42565b92915050565b8082028115828204841417610cdf57610cdf610c4256fea26469706673582212200f429eb940112731f5ed7ddb4def08bd099a5ae58131dc81767e109bbdb182f564736f6c63430008130033",
  "immutableReferences": {},
  "source": "// SPDX-License-Identifier: MIT\npragma solidity ^0.8.0;\n\n// This is a simple smart contract to track the lifecycle of agricultural produce.\n// It's designed for speed and simplicity for the hackathon.\ncontract ProduceTracker {\n\n    // A struct to hold the details of each batch of produce.\n    struct Produce {\n        uint id;\n        string name;\n        address owner;\n        string[] history; // A log of all actions for this produce\n    }\n\n    // A mapping from the produce ID to the Produce struct.\n    mapping(uint => Produce) public produceItems;\n    uint public produceCount; // A counter to ensure unique IDs\n\n    // Event to be emitted when a new produce is registered.\n    event ProduceRegistered(\n        uint id,\n        string name,\n        address owner\n    );\n\n    // Event to be emitted when ownership is transferred.\n    event OwnershipTransferred(\n        uint id,\n        address from,\n        address to\n    );\n\n    /**\n     * @dev Registers a new batch of produce.\n     * @param _name The name of the produce (e.g., \"Organic Potatoes\").\n     */\n    function registerProduce(string memory _name) public {\n        produceCount++;\n        address initialOwner = msg.sender;\n        string memory initialHistory = string(abi.encodePacked(\"Registered by Farmer at address \", addressToString(initialOwner)));\n\n        produceItems[produceCount] = Produce(produceCount, _name, initialOwner, new string[](0));\n        produceItems[produceCount].history.push(initialHistory);\n\n        emit ProduceRegistered(produceCount, _name, initialOwner);\n    }\n\n    /**\n     * @dev Transfers ownership of a produce batch.\n     * @param _id The ID of the produce to transfer.\n     * @param _newOwner The address of the new owner (e.g., Distributor).\n     */\n    function transferOwnership(uint _id, address _newOwner) public {\n        require(_id > 0 && _id <= produceCount, \"Produce batch does not exist.\");\n        require(produceItems[_id].owner == msg.sender, \"You are not the owner of this batch.\");\n\n        address oldOwner = produceItems[_id].owner;\n        produceItems[_id].owner = _newOwner;\n\n        string memory transferHistory = string(abi.encodePacked(\"Transferred to new owner at address \", addressToString(_newOwner)));\n        produceItems[_id].history.push(transferHistory);\n\n        emit OwnershipTransferred(_id, oldOwner, _newOwner);\n    }\n\n    /**\n     * @dev Retrieves the full history of a produce batch.\n     * @param _id The ID of the produce.\n     * @return A string array containing the history log.\n     */\n    function getProduceHistory(uint _id) public view returns (string[] memory) {\n        require(_id > 0 && _id <= produceCount, \"Produce batch does not exist.\");\n        return produceItems[_id].history;\n    }\n    \n    /**\n     * @dev Helper function to convert an address to a string.\n     * Solidity doesn't have a native way to do this.\n     */\n    function addressToString(address _addr) internal pure returns (string memory) {\n        bytes32 value = bytes32(uint256(uint160(_addr)));\n        bytes memory alphabet = \"0123456789abcdef\";\n        bytes memory str = new bytes(42);\n        str[0] = '0';\n        str[1] = 'x';\n        for (uint i = 0; i < 20; i++) {\n            str[2+i*2] = alphabet[uint(uint8(value[i + 12] >> 4))];\n            str[3+i*2] = alphabet[uint(uint8(value[i + 12] & 0x0f))];\n        }\n        return string(str);\n    }\n}\n",
  "sourcePath": "/home/himanshu/Projects/team-revengers/backend/contracts/Produce.sol",
  "compiler": {
    "name": "solc",
    "version": "0.8.19+commit.7dd6d404.Emscripten.clang"
  },
  "schemaVersion": "3.4.16",
  "updatedAt": "2025-09-19T09:52:04.654Z",
  "networkType": "ethereum",
  "devdoc": {
    "kind": "dev",
    "methods": {
      "getProduceHistory(uint256)": {
        "details": "Retrieves the full history of a produce batch.",
        "params": {
          "_id": "The ID of the produce."
        },
        "returns": {
          "_0": "A string array containing the history log."
        }
      },
      "registerProduce(string)": {
        "details": "Registers a new batch of produce.",
        "params": {
          "_name": "The name of the produce (e.g., \"Organic Potatoes\")."
        }
      },
      "transferOwnership(uint256,address)": {
        "details": "Transfers ownership of a produce batch.",
        "params": {
          "_id": "The ID of the produce to transfer.",
          "_newOwner": "The address of the new owner (e.g., Distributor)."
        }
      }
    },
    "version": 1
  },
  "userdoc": {
    "kind": "user",
    "methods": {},
    "version": 1
  }
}